36C01004103731680000073000533643281201000001000030     0050M002066 0201405201                          1     0    0101                                                                                  
36C01004103731680000073000533643680300000001000030     0    002232 0201405201                          1     0    0101                                                                                  
36C01004103731680000073000533643680302000001000030     0071F002307 0201405201                          1     0    0101                                                                                  
30CFXX  01004103731680000073000    053320140520        LEGIT                          002331002400000030                  CS  CS  HONESTY                                 1005LEGIT ENC 4                   LF               D0000                                                                              000032000042N000000000NNNN                                                                                                                        
